:020000022000DC
:10700000000004203549070075490700774907004B
:10701000794907007B4907007D490700000000000F
:1070200000000000000000000000000021480700F0
:10703000814907000000000041480700854907001A
:10704000694B070087490700B51D0700EDCB03001A
:107050008749070087490700F9210700874907008A
:1070600087490700874907008749070087490700C4
:1070700087490700874907008749070087490700B4
:1070800087490700A545070087490700874907008A
:107090008749070087490700EDFF06008749070079
:1070A0008749070087490700874907008749070084
:1070B0008749070087490700000000000000000022
:1070C000874907008749070087490700555107008E
:1070D000874907008749070087490700C97C0200E4
:1070E000011E0700874907008749070000000000CC
:1070F000000000008749070000000000CD51070094
:10710000000000000000000000000000000000007F
:10711000000000000000000000000000000000006F
:10712000000000000000000000000000000000005F
:10713000000000000000000000000000000000004F
:10714000000000000000000000000000000000003F
:10715000000000000000000000000000000000002F
:10716000000000000000000000000000000000001F
:10717000000000000000000000000000000000000F
:1071800000000000000000000000000000000000FF
:1071900000000000000000000000000000000000EF
:1071A00000000000000000000000000000000000DF
:1071B00000000000000000000000000000000000CF
:1071C00000000000000000000000000000000000BF
:1071D00000000000000000000000000000000000AF
:1071E000000000000000000000000000000000009F
:1071F000000000000000000000000000000000008F
:10720000F1EE103A43F08073E1EE103A704700BFA0
:1072100010B5054C237833B9044B13B10448AFF3D0
:1072200000800123237010BD2065002000000000B5
:1072300058FE080008B5034B1BB103490348AFF3E0
:10724000008008BD000000002465002058FE0800F2
:10725000154B002B08BF134B9D46A3F5803A002128
:107260008B460F461348144A121A56F056FF0F4B1E
:10727000002B00D098470E4B002B00D098470020E1
:10728000002104000D000D48002802D00C48AFF387
:10729000008056F0B7FE200029004DF09DFB56F00F
:1072A0009DFE00BF00000800000004200000000058
:1072B00000000000206500207CD2002000000000BB
:1072C000000000000146014800F07ABA586500202D
:1072D00038B5064B1D783DB100242046013400F03E
:1072E00035FEE0B28542F9D838BD00BF54650020B4
:1072F000407DFF2806D010B500F074FD044618B19B
:10730000204610BD002070474EF0DCF8204610BD2E
:10731000407DFF280ED000B583B00DF1070100F0CD
:10732000B5FD20B19DF8070003B05DF804FB4FF0F8
:10733000FF30F9E74FF0FF30704700BF407DFF2876
:1073400011D000B583B001220DF1070100F056FD08
:1073500020B94FF0FF3003B05DF804FB9DF8070043
:1073600003B05DF804FB4FF0FF307047407DFF280D
:1073700001D000F0EBBD7047407DFF2801D000F048
:107380002BBE0020704700BFF8B50646407DFF28A1
:107390001CD017465AB10D46144600F0FDFC294694
:1073A000224680B1707D00F07BFD241A01D1384661
:1073B000F8BD05444EF086F8707D00F0EDFC2946DE
:1073C00022460028EED13F1B3846F1E70020F8BDE9
:1073D0000AB32DE9F043524991F81C6191F81D510F
:1073E00091F81E7193B0994614467B1CAA1C8046E6
:1073F000B01C81F81C0181F81D2181F81E3101A803
:107400004222002156F089FEB9F1410F05D8002033
:1074100013B0BDE8F083422070478DF806608DF808
:107420000E608DF82660721C40F20126D2B2ADF8D3
:107430001060DFF8F0C08DF81E20242640F6083ECC
:107440006B1C8DF827208DF83120ADF804E08DF805
:1074500016608DF820608DF82460CDF818C00426E1
:107460004FF0060C65F07F0540F209424FF0010E27
:1074700098F81410ADF80C208DF81CE005228DF85A
:107480001F608DF830608DF822C040F207568DF8ED
:1074900025C08DF82A5020464FF0030E63F07F047C
:1074A0004FF0080C02234FF411658DF814108DF87D
:1074B00007308DF808308DF809308DF812308DF8CE
:1074C00021308DF815208DF823208DF82BE08DF8D4
:1074D0002CC04FF00A0EADF82E504FF0400C01A911
:1074E000ADF8286007258DF833308DF840208DF8F1
:1074F0004140422244F20204ADF838608DF83B303E
:107500008DF83A708DF834E08DF83CC08DF83F501E
:10751000ADF8424056F0DDFD422013B0BDE8F083E7
:107520005865002020010524A0F11000FFF750BF8E
:1075300070B50368184A5B6882B093428DF80710F3
:1075400024D10546407DFF281DD000F025FC0DF11B
:10755000070601243146224688B1687D00F0A0FC70
:10756000241A02D1012002B070BD06444DF0AAFFDA
:10757000687D00F011FC314622460028EDD1C4F1AF
:10758000010002B070BD002002B070BD01220DF1FB
:107590000701984702B070BD89730200437DFF2B3D
:1075A00000D07047094B1A78002AFAD110B500F1C3
:1075B000100442750649204601221A7000F0CCF9E9
:1075C00021460448BDE8104000F0DCB854650020B6
:1075D000C81C08005865002001B900B1704700B50B
:1075E00083B0694600F0EEFB009BB3F5966F02D0C6
:1075F00003B05DF804FB00F07DFBF9E730B4084B05
:10760000084A4FF47F4102F10805002430324FF45C
:107610007A7099821D60C3E901401A6130BC7047DD
:107620003C650020D81C08002DE9F0410024484E9C
:107630002546435D4719A3B103F14002D2B2012AA6
:107640000AD9F42B08D81A060ED44FF0010EA3F570
:107650005842B2F5006F56D201354719435D002BF1
:10766000EAD12046BDE8F08103F0E002C02A57D0FD
:1076700003F0F002E02A66D003F0F802F02AEBD122
:1076800003F007024FF0040E7B7803F0C00CBCF14E
:10769000800FE1D197F802C00CF0C00803F03F035F
:1076A000B8F1800F43EA8213D6D10CF03F0CBEF143
:1076B000030F4CEA83132DD0FA7802F0C007802F15
:1076C000CAD102F03F0242EA8313A3F58032B242EC
:1076D000C2D8A3F55847B7F5006FBDD3B3F5803FC7
:1076E00005F1040510D31E2CBBDC6300970A0B4484
:1076F000C2F30902A7F52057A2F5105221F8147021
:107700005A80023495E77544202CAAD021F8143011
:1077100001348EE7A3F50062B2F5784F97D39BE76B
:107720007A7802F0C007802F03F01F0394D102F093
:107730003F0242EA8313A3F18002B2F5F06F8BD2CD
:107740004FF0020E83E703F00F024FF0030E9BE7AA
:10775000FFFF0F0090F850310B2B0CD871B103F1E3
:10776000480210B45C1C80F8504140F822105DF8CB
:10777000044B184670470023184670470B461846BE
:10778000704700BF70B504460E68B4F81821B4F80D
:107790001A31656936689B1A08469BB294F81C1129
:1077A0002A44B04758B1B4F818216369104480B234
:1077B000A4F81801588094F81C211A71012070BD9A
:1077C0002DE9F043284DDFF8B090AC4604468846DA
:1077D000BCE80F0089B003AF0FC703AE0FCE05F1B1
:1077E000140E25460FC59EE80700DCF800303B80EC
:1077F0006B4636682E8003C36B4603CB012504F12C
:1078000018034FF480766361A061E16184F8202061
:1078100004F59870C4F818912022A4F81C61002186
:1078200084F81E5156F079FC40F20947042240F2D8
:10783000EF230E4E0E48C4F828010021C4F82C1185
:1078400084F85021A3804FF4E131A571C4F8207170
:10785000C4F824610748FFF7A1FE404600F038FA5B
:10786000284609B0BDE8F0830C1D08003C1D080047
:107870004C1D08003C6500200900000100487047CD
:1078800058650020014B5869704700BF58650020BB
:107890002DE9F04F89B0F8B1032816D02B4C94F89D
:1078A000503183424FD9483004F5AA7154F8200072
:1078B000FFF7BAFEC0B20130400040F44070A4F8B7
:1078C0005201234809B0BDE8F08F204CD4F82C01B8
:1078D00050B104F5AA71EBE71C4CD4F82031A4F8A0
:1078E00054314FF44170EAE7684600F005FA054666
:1078F00010B300F1FF3A0DF10103164FE94653FAB8
:107900008AFAA64604AE97E80F0019F801CB86E87C
:107910000F000CF00F080DF1200BD8440BEB1C1CD2
:1079200018F8108C1CF8103CAEF85681D145AEF812
:1079300054310EF1040EE6D16800C0B201304000AF
:1079400040F44070BBE70020BCE700BF5865002052
:10795000AA6600202C1D080010B504460248FFF757
:10796000F9FE207110BD00BF5865002030B5144CE1
:10797000236883B013B3186851B914F03FFE23682D
:1079800093F90400012103B0BDE830404EF0DAB8AD
:107990000C4B0093002501238DF805308DF8045021
:1079A00002AB13E9060014F0C5FD236893F9040047
:1079B000294603B0BDE830404EF0C4B803B030BD36
:1079C000EC66002080BA8C010448006828B108B534
:1079D000006814F029FE012008BD7047EC66002005
:1079E000084B1B6843B141B9074B4022C3F88020C4
:1079F000BFF34F8FBFF36F8F7047034B40221A6066
:107A0000704700BFEC66002000E100E0024B53F835
:107A1000200000B1C0687047F066002030B4094C07
:107A2000BDF8085054F8204044B1246934B10846E8
:107A3000A44611461A462B4630BC6047002030BC95
:107A4000704700BFF066002030B4084CBDF8085005
:107A500054F8204044B1646934B10846A446114644
:107A60001A462B4630BC604730BC7047F066002099
:107A700000207047024B186808B190F8600070470A
:107A8000F86600202DE9F843234C2568002D3CD0F2
:107A90001E462C2303FB00531746D3F8209088463C
:107AA0000446B9F1000F32D0484657F074F92C2340
:107AB00003FB0454D4E90954DFF864C0174B0828C9
:107AC0000246494628BF08224046002D08BF6546A9
:107AD000002C08BF1C4656F0FCFA284657F05BF90C
:107AE00010280246294628BF1022384656F0F1FADF
:107AF000204657F050F9042802462146304628BF58
:107B00000422BDE8F84356F0E4BABDE8F883DFF894
:107B100014900820CBE700BFF8660020781D08000D
:107B2000681D08005C1D080070B5104E3368D3B1A5
:107B30002C2404FB0034054662691AB1904733686F
:107B400084F832002C2202FB053393F8324014B142
:107B50000124204670BD284623463A22022101F026
:107B6000E7F8204670BD1C46204670BDF866002030
:107B7000074B1B6853B110B42C2404FB0030C46ABB
:107B8000038E0C6013805DF8044B7047704700BF94
:107B9000F866002008B520220023052101F0C8F86E
:107BA0004FF0FF3008BD00BF30B4094C24685CB111
:107BB0000D4611462C2202FB0044E46924B11A460A
:107BC0002846234630BC1847012030BC704700BF10
:107BD000F866002030B4094C029A246854B10D466E
:107BE0002C2101FB0044A46824B1194628462346F1
:107BF00030BC18474FF0FF3030BC7047F8660020AB
:107C000030B4094C029A246854B10D462C2101FB72
:107C10000044E46824B119462846234630BC18477E
:107C20004FF0FF3030BC7047F8660020044B1B68F3
:107C30002BB12C2202FB0030036903B118477047B7
:107C4000F8660020054B1B682BB12C2202FB00308C
:107C5000836903B118470120704700BFF866002010
:107C600005F0DCBB00B5164B83B04022002483F83E
:107C7000272301A9012320468DF804308DF8054003
:107C800002F0DAFE4FF0804302A8D3F8385400F82F
:107C9000084D4CF0EBFE0B4B019301A84CF036FF66
:107CA0004CF046FFEB0707D400214FF0FF3002F005
:107CB0004DFFFFF70DFBF7E7204605F0AFFBF3E7BD
:107CC00000E100E0617C0200002005F01DB800BF6B
:107CD00000B5002383B00322CDE900230349044803
:107CE000C8224BF08FFB03B05DF804FB7C1D08003D
:107CF000657C02004DF092BD4FF08052536E1BBA6E
:107D00000360136E1BBA4360082070470048704739
:107D1000841D080070B51E4C2368D3B1012901D021
:107D2000012070BD1578C5F34115012D13D0022D2A
:107D30000FD15478012C21D0022CF1D19388072B3C
:107D400007D1144C114623892246BDE8704003F048
:107D500035BE002070BD51782229E1D111465288EC
:107D6000003218BF01225A7503F010FE2268D36951
:107D7000002BD5D0507D9847284670BD9C69002CBB
:107D8000E7D0114623782246BDE8704003F016BEC6
:107D9000FC6600200460002010B5044602F034FEAA
:107DA00008B9002010BD02F037FE0028F9D1044BBD
:107DB0004FF4367202FB0434207900F0010010BD4C
:107DC00080670020064A4FF4367303FB0023083314
:107DD000186808609A889B798B718A80704700BF09
:107DE0008067002008B5044A4FF4367303FB002077
:107DF000103002F055FC08BD806700202DE9F843E3
:107E00004FF4367404FB00F41E4E4FF6FF73074622
:107E100004F110054FF6FE70824288BF1A463544C1
:107E2000284692B202F066FC804602F0EDFD10B9E1
:107E30004046BDE8F88302F0EFFD81460028F7D107
:107E40003444E378002BF3D0284602F041FC3F286D
:107E5000EED9E178484603F0E7FC0028E8D0284650
:107E600002F036FC3F2804D8E178484603F0ECFCE9
:107E7000DEE7054AE178484602EBC712402303F0EB
:107E8000F3FCD5E78067002000670020034A4FF429
:107E9000367303FB0020103002F096BC8067002090
:107EA0002DE9F8434FF4367505FB00F5244F4FF6E6
:107EB000FF73064605F124044FF6FE70824288BF28
:107EC0001A463C4492B2204602F0B8FC8046204656
:107ED00002F0E6FB3F2802D84046BDE8F88302F0F6
:107EE00093FD0028F8D002F097FD81460028F3D1D9
:107EF000204602F0D5FB0028EED03D444846A97844
:107F000003F092FC0028E7D00E4B402202EBC6168D
:107F10001E442046314602F0EDFB034660B1324676
:107F2000A978484603F0A0FC0028D5D1064B1B6871
:107F3000DB07D1D500BECFE7A97803F085FCCBE7FE
:107F40008067002000670020F0ED00E02DE9F0419F
:107F5000804602F059FD10B90020BDE8F08102F022
:107F60005BFD07460028F7D14FF4367404FB08F494
:107F7000164E04F124053544284602F091FB0028F2
:107F8000EAD026443846B17803F04EFC0028E3D00E
:107F900040220F4B02EBC81898442846414602F095
:107FA000A9FB044660B14246B1783846234603F047
:107FB0005BFC40B9074B1B68DB07CDD500BECCE7A7
:107FC000B17803F041FC2046C7E700BF806700207E
:107FD00000670020F0ED00E008B5044A4FF4367366
:107FE00003FB0020243002F073FB08BD80670020F3
:107FF00070B5204C82B000214FF4367220460D46F9
:1080000056F08BF8FF234FF4E132082604F13801D3
:108010006371A26001234FF48072009504F1100097
:10802000A67302F001FB144B1B78C3F3800300938B
:1080300004F59C7101234FF4807204F1240002F0D6
:10804000F3FA04F50E7101204AF020FC04F52271C8
:10805000064601204AF01AFC06B130B9074B1B68EE
:10806000DB0700D500BE02B070BDC4E90756C4E905
:108070000C05F8E780670020B8600020F0ED00E014
:1080800038B5094C206A256B20B14BF023F800234A
:10809000C4E907332DB128464BF01CF80023C4E98E
:1080A0000C33012038BD00BF8067002010B50E4C96
:1080B0000E482378002202600271DA0709D59B0777
:1080C0000DD521780A48C1F38001BDE8104002F0C7
:1080D00063BC103002F040FC23789B07F1D40448C5
:1080E00002F03AFCEDE700BFB86000208067002096
:1080F000A46700202DE9F0414B79022B82B004D017
:108100000025284602B0BDE8F0818B79022BF7D11B
:10811000364EB3782BB1364B1B68DB07F0D500BE6B
:10812000EEE78B7833700C780C4407466378242B89
:108130004FF009050BD1082A02D822E0AA4220D329
:1081400023781C441D446378242BADB2F6D0052B54
:1081500038D0042B15D163790A2B12D1254A94F813
:1081600000800192022301320092384604EB08019C
:108170001A4603F095FA0028CDD00E3518FA85F589
:10818000ADB202F041FC0028BBD002F045FC044631
:108190000028B6D1F378002BB3D0174802F098FA34
:1081A0003F28AED9F178204603F03EFB0028A8D046
:1081B000114802F08DFA3F28F17811D8204603F0DB
:1081C00043FB9EE72146384603F00AFB0028A2D075
:1081D000A378737023781C441D44ADB26378B8E76C
:1081E000064A2046402303F03FFB8AE780670020D1
:1081F000F0ED00E08267002090670020006700201B
:1082000038B5137803F06003202B01D0002038BD6F
:10821000294C938825789D42F8D15378203B032B35
:10822000F4D8DFE803F008151E02012936D003292F
:1082300039D0012038BD01290CD00329F9D11F4BB9
:10824000002BF6D01E490020AFF30080012038BD7E
:108250000129EED111460723194A03F0AFFB012093
:1082600038BD01291AD00329E3D1164B55881B7854
:108270001548257113F004011CBFE94301F0010109
:1082800002F08AFB114B002BD3D0C5F3400205F05E
:1082900001010020FFF7A0F9012038BD114603F0CD
:1082A00075FB012038BD0A4B002BC2D0518800203D
:1082B000AFF30080BDE700BF806700200000000032
:1082C00088670020B8600020A4670020D9750200EC
:1082D000000000002DE9F0475F4CE2788A420D462D
:1082E00080461F4659D15D4E9AB2314604F11000C6
:1082F00002F0A4FA5A4BC3B16379FF2B15D0A7B192
:1083000006EB070A04F1100902E056450DD0637927
:1083100016F8012B9A42F8D1484602F0D1F900280C
:10832000F3D16179AFF30080EFE74E4B23B14E48B4
:1083300002F0C6F9002863D002F066FB002862D183
:10834000A3789D4202D00120BDE8F087474B13B1CE
:108350000020AFF3008002F057FB00282BD14448E7
:1083600002F09EF90028EED1002FECD017F03F0765
:10837000E9D1A178404603F057FA0028E3D0A1786C
:1083800040463B463A4603F06FFA0028DBD1394BB2
:108390001B68DA070CD500BED6E7A3788B42D5D090
:1083A000344B1B68DB0703D500BE0020BDE8F08717
:1083B0000020BDE8F08702F02FFB05460028CED153
:1083C0002B4802F06DF90028C9D0A178284603F0A7
:1083D0002BFA0028C3D040222749254802F08AF909
:1083E000034600282CD02846234AA17803F03CFA03
:1083F0000028A8D11F4B1B68D907B0D500BEAEE737
:10840000AFF3008098E702F007FB0646002897D1FB
:10841000E378002B94D0144802F05AF93F288FD902
:10842000E178304603F000FA002889D00E4802F0C7
:108430004FF93F28304607D8E17803F005FA7FE787
:10844000A17803F001FA8AE74023044AE17803F0B7
:108450000BFAA37875E700BF806700200067002053
:1084600000000000000000009067002000000000F5
:10847000A4670020F0ED00E040670020704700BFD7
:1084800001207047704700BF704700BF044B0022B7
:10849000C3E90022C3E90222C3E90422704700BFF6
:1084A000D86B002001207047044B0022C3E9002252
:1084B000C3E90222C3E90422704700BFD86B002041
:1084C0002DE9F0434B79032B83B004D000242046E0
:1084D00003B0BDE8F0830B79C3EBC3041234A4B23C
:1084E000944205D9254B1B68DA07EFD500BEEDE7AE
:1084F000234A5578002D3ED0557B002DF2D102F154
:108500000C054FF4A0770E788A1992F801C0BCF1DF
:10851000210FE7D1AA608946895D80466E1CA81CA0
:108520001144CDE900061A464046032303F0B8F88B
:108530000028D7D099F80630A978012B04BF99F804
:108540000730EB700123AB7199F80220AB682A70F9
:10855000B3F80730AB800029B9D00A4A40463A4404
:10856000402303F081F90028B1D1044B1B68DB07DD
:10857000ADD500BEABE715468027C4E7F0ED00E0BF
:10858000D86B0020586A00202DE9F047137803F0DB
:108590001F06012E82B003D0002002B0BDE8F08794
:1085A000DFF80882978898F80040FFB2BC4200F0DC
:1085B000B08098F80C40BC42EED13746B4464FF03C
:1085C000C00E4FF0130A4FF0120913F060030C466F
:1085D0000546164604D1012900F0A4800120DCE7FD
:1085E000202BD9D15378013B0A2BD5D801A252F8C0
:1085F00023F000BFC9860200BF860200A9860200E0
:1086000099850200998502009985020099850200EA
:1086100099850200698602004186020021860200D7
:1086200001291BD00329D9D173880C2606FB0786A4
:10863000DBB260461946B371FFF720FF0120ACE7BB
:108640000129CBD173880C2202FB07871B0A6046E5
:108650001946FB71FFF714FF00289DD031462846CC
:1086600003F094F9012098E7012900F0868003299E
:10867000B4D1F48871884B4B402C4FEA112220462C
:1086800028BF402011F0FF01734407D0012C05D909
:108690001C788C4202D1013880B2013300906046D0
:1086A000FFF7D2F9012078E7012997D108EB0902F9
:1086B00031462846234603F081F920466DE701291B
:1086C0008CD108EB0A02F3E7012987D1F38871887E
:1086D000344F402B4FEA1122184628BF402011F09A
:1086E000FF01774454D0012B52D9013880B2397040
:1086F0007B1C00906046FFF791F90444A3B2002B65
:1087000049D1294A1268D2077FF546AF00BE184604
:1087100043E74FF0000E7746F4464FF0070A4FF05C
:10872000060952E75378062B7FF436AF53881B0AAD
:10873000212B12D0222B7FF42FAF6046FFF766F972
:108740007B001F4408EB8708024631462846B8F8EC
:10875000043003F033F920461FE77B001F4408EB89
:108760008708D8F80820002A3FF416AF137831465E
:1087700002B0BDE8F04703F021B9F388402B3FF683
:108780000BAF084A3146724403F018F9204604E75B
:108790003B460024ADE73A463146284603F00EF941
:1087A0000120FAE6586A0020F0ED00E0D86B0020C6
:1087B000F0B52C4CA67865788E4283B0074610D071
:1087C000A9422CD0A07B657B88423FD0A94244D0EF
:1087D000254B1B68DA0702D4002003B0F0BD00BEB1
:1087E000FAE780264FF0400C0020A9429BB21AD035
:1087F0001E4D3544FAB9009311462B460222FFF76D
:1088000023F92A46A1783846402303F02DF80028A2
:10881000E3D1154B1B68DB07DED500BEDDE74FF06B
:10882000400C00209BB2114961444AB91A46FFF737
:1088300029FE0120D1E72A460221FFF725FEE0E7C5
:108840000A460121FFF720FE0120C6E70C344FF451
:10885000A0764FF4807C0120C7E74FF4807C012094
:10886000E0E700BFD86B0020F0ED00E0586A002080
:1088700070B5194C82B000210D464FF4EC722046C1
:1088800055F04BFC04F138010123802204F1100063
:10889000009501F0C9FE04F1B80101238022009582
:1088A00004F1240001F0C0FE04F59C71012049F0A0
:1088B000EDFF04F5C4710646012049F0E7FF30B929
:1088C000064B1B68DB0700D500BE02B070BDC4E9D3
:1088D0000756C4E90C05F8E7706C0020F0ED00E0E5
:1088E00038B5094C206A256B20B14AF0F3FB002310
:1088F000C4E907332DB128464AF0ECFB0023C4E954
:108900000C33012038BD00BF706C002010B5084C3E
:10891000002304F11000C4E90033C4E9023302F07B
:108920001BF804F12400BDE8104002F015B800BFA8
:10893000706C00202DE9F0434B79012B83B004D0FB
:108940000025284603B0BDE8F0838B79012B0C4647
:10895000064616D049780429F2D10025032BEFD121
:10896000E379002BECD1DFF8FC8098F8013013B9E3
:1089700098F802700FB3384B1B68DB07E0D500BED8
:10898000DEE7CB79002BDBD10B781C449DB26178FC
:1089900024290BD1954202D9D2E7AA42D0D3237819
:1089A0001C442B44617824299DB2F6D00429C7D1F8
:1089B0006379012BC4D1A379D0E7A37888F800307C
:1089C00094F8009021794D44ADB2A14439B925E025
:1089D00099F800308F421D44ADB299441ED2AA428C
:1089E0001CD399F80130052BF2D14946304601924B
:1089F00002F0F6FE019A0028BDD099F80230D9099C
:108A000014BF88F8013088F8023099F800302179D5
:108A100001371D44FFB2ADB29944D9E70F4801F0C8
:108A200057FE3F288DD998F80210002002F0FCFE76
:108A3000002886D0094801F04BFE3F2898F8021024
:108A400003D8002002F000FF7BE7054A4023002006
:108A500002F00AFF75E700BFF0ED00E0806C002037
:108A6000306C0020706C002000207047F8B53C4D41
:108A7000AA788A421F4612D19AB23A4905F11000EB
:108A800001F0DCFE384B13B10020AFF30080374813
:108A900001F01EFE3F282CD801242046F8BD6B783B
:108AA0008B4208D0324B1C6814F00104F5D000BE94
:108AB00000242046F8BD064605F1240001F0F0FD33
:108AC00040BB2C4801F0ECFD0028E5D1002FE3D09D
:108AD00017F03F07E0D16978304602F0A5FE044662
:108AE0000028D9D0697830463B463A4602F0BCFEB1
:108AF000D3E7A978002002F097FE04460028CBD0E7
:108B00001A4801F0E5FD3F28A9781ED8002002F0A0
:108B10009BFEC2E76978002002F086FE0028D0D0D4
:108B20004022154905F1240001F0E4FD034690B10F
:108B3000114A6978002002F097FE0028ACD10C4B56
:108B40001B68DB07BDD500BEBBE7064A40230020FB
:108B500002F08AFEA1E7697802F076FEB1E700BF75
:108B6000706C0020306C002000000000806C002041
:108B7000F0ED00E0946C0020F06B002030B4114B5D
:108B80009C689A6B93F83C5083F82C10A21A02212F
:108B900083F830109A6225B942F2050183F83E50FD
:108BA000998744B13AB11A7BD20906D193F82F10B4
:108BB00030BC02F099BE30BC704793F82E1030BC28
:108BC00002F092BE4870002038B5214B214C05467A
:108BD0001BB1607BFFF736F8A8B1A06BA36894F8CF
:108BE0002F101D4A1B1AB3F5007F28BF4FF40073E6
:108BF00028469BB202F038FE20B9184B1B68DB07F1
:108C000000D500BE38BDA268A36B84F83E0042F2D6
:108C10000771D31A0120A1870221A36284F82C00D6
:108C200084F83010002AEDD0002BEBD0237BDB0939
:108C300006D194F82F102846BDE8384002F054BE03
:108C400094F82E102846BDE8384002F04DBE00BF13
:108C5000457C020048700020486E0020F0ED00E0E6
:108C600070B5304CE28AA36852BA92B286B005461B
:108C700012B1B3FBF2F292B2A66BD4F81110607B82
:108C80009B1BB3F5007F28BF4FF4007309BA009314
:108C9000B6FBF2F302FB13621944234BFEF79AFF73
:108CA000031E20DB94F82E200DD011469BB22846DF
:108CB0001D4A02F0D9FDA0B91C4B1B68DB0710D57B
:108CC00000BE06B070BD0724194603A88DF80C50ED
:108CD0008DF8102005938DF811308DF80D4002F0BD
:108CE000B7FB06B070BDA268A36B43F6022000215B
:108CF000D31AA08784F83E1001200221A36284F8D1
:108D00002C0084F83010002AEBD0002BE9D0237B14
:108D1000DB0914BF94F82E1094F82F10284602F0A7
:108D2000E3FDDEE748700020486E0020F0ED00E033
:108D300010B4054C012084F83C1084F83D2084F8E0
:108D40003E305DF8044B70474870002040220021FF
:108D5000014855F0E2B900BF4870002040220021D0
:108D6000014855F0DAB900BF487000204B79082B54
:108D700001D0002070478B79062BFAD1CB79502B8C
:108D8000F7D1162A06D81C4B1B68D907F1D500BEAF
:108D90000020704770B5194D8B7885F82D300B7811
:108DA00082B005F12F0205F12E0619440223CDE908
:108DB00000261A46044602F073FC48B90E4B1B68A5
:108DC000DA0702D500BE02B070BD002002B070BD4F
:108DD000204695F82F100A4A00241F2385F83040BA
:108DE00002F042FD30B9044B1B68DB0702D500BE20
:108DF0001720E8E71720E6E7F0ED00E048700020D4
:108E0000486E0020012901D001207047F0B5137889
:108E100003F07F01022985B0054606D003F0600308
:108E2000202B1AD0002005B0F0BD5478012CF5D1CC
:108E30005388002BF6D1434E918896F83030042B9E
:108E4000C9B279D096F82E408C423DD096F82F408A
:108E50008C4257D0012005B0F0BD5378FE2B16D0C0
:108E6000FF2BDFD15388002BDCD1D488A3B2002B99
:108E7000D8D1344E1146284686F83030C6E90D3335
:108E8000B48786F83E3002F081FD0120CBE753889D
:108E9000002BC7D1D388012BC4D12B498DF80F30BB
:108EA00000294DD00192FEF7E5FD019A0028B9D0C6
:108EB000431EDBB204AC114604F8013D28462246AD
:108EC000012302F07BFDC5E7022BC3D1B26BB3686F
:108ED0001E4F9B1AB36206F120030FCB07C73A4619
:108EE000214602F80C39032428460D2386F8304029
:108EF00002F0BAFC0028ADD1154B1B68DB0791D5F9
:108F000000BE90E7002BA5D1214602F0DFFC00282F
:108F1000A0D12146284602F005FD00289AD1002460
:108F200096F82F10094A86F8304028461F2302F091
:108F30009BFC0028E0D08DE702F0D6FC204672E7CB
:108F40000B46B7E748700020757A0200486E002093
:108F5000F0ED00E02DE9F041B44C94F83050012DD3
:108F60008EB01E46074645D028D3032D05D0022DCE
:108F70005FD001200EB0BDE8F08194F82E308B4216
:108F8000F7D10D2EF5D1E37B282B00F01A812A2B87
:108F900040F00D81A64B13B1607BFEF747FE002524
:108FA00094F82F10A34A84F830501F23384602F05B
:108FB0005BFC002861D094F83050D8E794F82F502B
:108FC0008D42D6D11F2B06D1DFF868829A4BD8F894
:108FD00000209A4271D0042394F82E1084F8303087
:108FE000384602F081FC384694F82F1002F07CFCE1
:108FF0000020BFE7B3F5007F08D9904B1B68D90765
:1090000000D500BE00200EB0BDE8F081E27BA36B6E
:10901000282A00F087802A2A00F08F80217B626B4B
:109020001E44CB09A66336D096422CD3022384F883
:10903000303094F82E10384602F074FC002898D195
:10904000A368A26B94F82E60934202D9217BC909D0
:109050002ED19B1A7A4AA3620FCA764D07C52A46BB
:10906000314602F80C39032538460D2384F8305078
:1090700002F0FAFB00287FF47CAF704B1B68DB0723
:10908000C0D500BE76E76D4B1B68DA0793D500BEEE
:1090900094F830506BE793B2607B664A04F10F019D
:1090A000FEF778FD0028C0F29F80A66B626BBBE7DD
:1090B0003146384602F018FC5BE7C446BCE80F00B6
:1090C00026460FC69CE80F0007C626F8023B1B0C7D
:1090D0003370D4E90123E17B5A4E62620120002201
:1090E000282963632662A26284F82C20A26384F894
:1090F000300000F0AD802A2900F0DF80002B00F066
:10910000EF80227BD20940F0EB80B3F5007F00F2C4
:109110006F819BB22946474A384602F0A5FB0028DA
:10912000ABD048E7626B1E449642A663BFF47EAFA5
:10913000FFF796FD94F8305019E7E28A52BA92B2DE
:109140001AB1A168B1FBF2F292B2D4F81110394D04
:10915000B3FBF2FC09BA02FB1C32607B009661444F
:109160002B46FEF74DFD0028C0F2FB81864230D928
:10917000361A40B1A36B291813FA80F332462846F9
:10918000A36354F0B1FF002394F82F508DF81850CA
:109190000722194605A88DF8147007968DF8193026
:1091A0008DF8152002F054F994F83050DFE6264B84
:1091B000002B3FF4F4AE04F10F01607BAFF30080AD
:1091C000EDE6224B002B3FF4EAAE607BAFF300806C
:1091D000E5E6D4E90D231E449642A663BFF426AF0C
:1091E0003846FFF7F1FCE6E6A368A66B94F83C105E
:1091F00084F82C509A1B0220A26284F8300021B916
:1092000042F2050084F83E10A087002B3FF44EAFD9
:10921000002A3FF44BAF237BDB0940F0E58194F853
:109220002F10384602F060FB3FE700BF4870002077
:109230002D7C0200486E002055534243F0ED00E0C3
:1092400068700020555342530000000000000000E9
:10925000E28A52BA92B20BBB002A3FF4E7AE94F80E
:109260003C10A362022284F82C2084F830200029CC
:109270007FF4DFAE42F205010022A18784F83E2090
:10928000002B3FF4D6AE237BDB0940F09A812946C0
:10929000384602F029FB94F8305068E6207BC0097C
:1092A00013D0002A00F08081B3FBF2F2002A00F014
:1092B000A3812829384694D13AE7E28A52BA92B279
:1092C000002BC9D0207BC009EBD094F83C10A362DE
:1092D000022284F82C2084F830200029CAD0D2E75A
:1092E000667B252900F22B81DFE811F0220129019C
:1092F0002901E50029012901290129012901290163
:10930000290129012901290129012901290129010D
:10931000BD0029012901290129012901290129016A
:1093200099008700290129017100290129012901DA
:1093300029014C0029012600304604AA05A9FEF7A0
:1093400017FC059B002B00F04481BDF81020002A7B
:1093500000F03F81013B1BBA12BAC8E90032082075
:10936000A368002B44D0984228BF184683B260639C
:10937000A64A94F82E10384602F076FA00283FF4F8
:109380007CAE18E605AD00230DF10E02304604A9AF
:109390006B600593AB60FEF7EBFB049A002A00F0CC
:1093A0001881BDF80E30002B00F0138112BA08218D
:1093B00006925BBA0222ADF81E308DF817108DF8B8
:1093C0001C2095E8070088E807000C20C8E7904BB0
:1093D00003B33046227DE17CAFF30080D0B994F82E
:1093E0003C302BB943F602220023A28784F83E309A
:1093F00001213846FFF7C2FBDDE5864B53B1E17C26
:109400003046C1F3400301F001020909FEF7CCFB2D
:109410000028E4D0A368002B3FF408AEE8E79DF8ED
:1094200016307D49002203F0800362F3C7138DF8E4
:10943000163003238DF815208DF817208DF8143081
:10944000002900F0E1803046FEF7FCFB9DF8163065
:1094500080F0010060F3C7138DF81630059BC8F843
:10946000003004207CE74FF0203302250022CDE9B4
:109470000522304607A909AA08934FF0800C0793EC
:1094800009930D93CDE90A330C931F260DAB8DF88C
:1094900016508DF8175005AD8DF818608DF815C071
:1094A000FEF7F0FA0FCD594E0FC60FCD0FC62B6841
:1094B0003360242054E794F83C2094F83D0094F85D
:1094C0003E10DFF848C1DFF858E14FF000084FF0D8
:1094D0000003CDE90588CDE9078862F303038DF821
:1094E0001630F0220A23ADF824808DF820008DF884
:1094F00021108DF814208DF81B3005AD0FCDACE890
:109500000F002B68ACF80030BEF1000F76D0ACF144
:10951000100130464FF40072AFF300800028A4F829
:109520003C8084F83E800FDB00283FF473AF17E7E0
:109530003046FEF7F9FA00283FF451AF6AE794F895
:109540003C30002B7FF454AFA38E304A3349607B0C
:10955000FEF720FB0028FFF64BAF00283FF45AAF80
:10956000FEE6A36BA2681E4443F602200021931B73
:10957000A08784F83E1001200221A663A36284F82C
:109580002C0084F83010002A3FF453AD002B3FF438
:1095900050AD237BDB0914D194F82F10384602F02C
:1095A000A3F994F83050E2E4012294F83C1084F8D6
:1095B0002C200222A36284F8302000293FF45AAE06
:1095C0005EE694F82E10384602F08EF994F830508A
:1095D000CDE494F83C30002B7FF40AAF43F602222E
:1095E00084F83E30A28703E794F82E10384602F044
:1095F0007BF9D4E90D2617E50222D6E7A4F83CE072
:1096000084F83EE01220ABE601201FE7486E002000
:1096100000000000A97B0200457C0200577000207A
:109620000000000070B5134C134E84B020464FF478
:10963000AE72002154F071FD4025002304F58E72B6
:109640000092CDE901561A46194604F1B00003957F
:1096500004F068F92E4404F170020023CDE90025DE
:10966000CDE90265201D1946012204F05BF904B022
:1096700070BD00BF087100208870002010B5054C37
:1096800004F1B00004F07AF9201D04F077F901200C
:1096900010BD00BF0871002038B5074C20460025DA
:1096A00000F8B85B01F058F904F10C0001F054F92E
:1096B00084F8B150657138BD087100204B79FF2BDB
:1096C00001D0002070472DE9F04FDFF824B19BF85E
:1096D000B13083B04BBB9BF8053033BB0B788A4667
:1096E0000AEB02050AEB030489788BF80010A54207
:1096F000064614D91AF80320A3189D420FD36278A6
:10970000042A0CD00B2A0AD0052A0BF1B8080BF159
:10971000B0070BF10C0917D09D421C4609D8A4EBE9
:109720000A0080B203B0BDE8F08F002003B0BDE8AE
:10973000F08F1A7813449D42F1D36278042AEED058
:109740000B2AECD0052AE7D12146304602F048F832
:10975000002843D0A378DB0905D19BF8B1301BB3B7
:109760002278A318D8E79BF80530002BF8D148469B
:10977000019301F0F1F8A2788BF80520A2889BF8FC
:1097800004C0019B1849C2F30A02A2F50072B2FAA2
:1097900082F2520962F3410C18468BF804C004F0BF
:1097A00037F92278A318B7E7404601F0D5F8A37837
:1097B0008BF8B130A3889BF8B020C3F30A03A3F55C
:1097C0000073B3FA83F35B0963F341023946304611
:1097D0008BF8B02004F064F90028C1D1034B1B685A
:1097E000DB07A2D500BEA1E70C710020F0ED00E080
:1097F0000871002070B51C4C94F8B1208A420546CF
:109800001E460FD1B4F8BC20F2B9184B23B1B2B246
:1098100017490020AFF300802846164904F040F9AC
:10982000012070BD63798B4201D0002070BD124BC6
:109830001BB1B1B20020AFF300801049284604F0FC
:10984000E7F848B1012070BDB2B2D4F8B41004F109
:10985000B80000F0F3FFD8E732462846074904F085
:1098600099F8012070BD00BF0871002000000000C1
:1098700088700020B8710020000000000C710020EA
:10988000F8B50E688D88B7783544AE420BD23B46AA
:109890009F42344603D10BE06378042B05D0237834
:1098A0001C44A542F8D80020F8BDA3789F42F6D109
:1098B000E3789A42F3D1A542F5D9237D012B06D94D
:1098C000144B1B68DA07EED500BE0020ECE72379C5
:1098D0000D46DBB1012BE6D12278E389617A13448E
:1098E000114423442144994204D3DCE70A7811440B
:1098F0008B42D8D94A78052AF8D101F071FF28B9EE
:10990000044B1B68DB07CED500BEF8BDA41BEC8062
:109910000120F8BDF0ED00E0C28832B9654B1B684C
:10992000DB0700D500BE00207047F0B40378624822
:1099300003EB830403EB4403C058831803D08E78F1
:109940001C7BA64207D95B4B1B68D90700D500BE1C
:109950000020F0BC70472EB9012C01D90120F8E796
:1099600001268E7001248C60C1F80E404C770025D2
:109970006FF03F0481F822508C766FF003056FF092
:109980006404CD760C774D4DC1F81E50082481F843
:109990002340825CB3F80D4014441C441344A3429A
:1099A000D1D2474F9D78102D0CD827FA05F0C0432F
:1099B00010F0010006D1DA78964203D107E05A7818
:1099C000242AEFD01A7813449C42F8D8BBE79C4273
:1099D000B9D0062D06D0102D04D0042DB9D1012206
:1099E00048730A73CF781A79974218D81FB9012A99
:1099F000B4D80127CF701A781A44A2420FD29678B1
:109A000006F0FD0CBCF1050F0FD0112E03D10CE0B8
:109A10005678242EF3D0167832449442F8D8254B49
:109A20001B68DA0794D500BE93E7D678B742F2D127
:109A30009442F4D0D1F812408CB9062D30D0102DBC
:109A40002ED0042D09D1B2F80560B2F807505C7D24
:109A500005FB06F304FB03F4E408C1F812404B686D
:109A600063B9557E012D3FF679AFD2F81A3025B98A
:109A7000D2F81E209A427FF471AF4B60114AA2FBCC
:109A800003235A0BCBD0631E1344B3FBF2F3023310
:109A9000B3F5807F28BF4FF48073C1F816305DE7BF
:109AA000B2F80530B2F8074004FB03F42401E408DF
:109AB000D3E700BFF0ED00E0647200200301010174
:109AC000501001005917B7D12DE9F84F0B785D4CB4
:109AD00003EB83050E4603EB45030989E7589146DE
:109AE000804679B13944CB7803F00303012B00F0B1
:109AF0009480738933B13B44DA7802F00302012A7F
:109B000000F091807488B58800233C44B381F381D0
:109B100033827382B382F3823D44A278AC4238BF71
:109B2000134609D29A4203D10CE06378042B06D085
:109B300023781C44A542F8D80020BDE8F88FA3780C
:109B40009A42F5D1E3789945F2D1A542F4D994F837
:109B500004A0BAF1020F15D8E31BF380B9F1000F8E
:109B600016D023781C44BAF1000F4CD04FF0000BF4
:109B700006E06378052B28D0042B03D023781C44FF
:109B8000A542F6D8304B1B68DA07D5D500BED3E71F
:109B9000737F012B12D006F11E03494686F81D90F3
:109BA000A6F81890A6F81A901846302254F0B5FA84
:109BB00001463046FFF7B0FE0028BDD023781C4494
:109BC000BAF1000FD2D10120B7E7E37803F0030325
:109BD000B9F1000F01D0012B18D0022BACD12146D6
:109BE000404601F0FDFD28B306EB4B03E21B1A8152
:109BF00022780BF101039A4514444FF0010BBFD8B2
:109C0000B9F1000FDFD002237377DCE7A388B269D4
:109C1000C3F30A039342E2D28EE7002333818978AB
:109C200001F08EFE65E7002272819978404601F0CE
:109C300087FE67E7044B1B68DB077FF57DAF00BE3F
:109C40007BE700BF64720020F0ED00E010B4064C2A
:109C500006480023C4E900331946C4F807304E22F1
:109C60005DF8044B54F059BA647200207073002000
:109C70000120704710B4064C06480023C4E90033A5
:109C80001946C4F807304E225DF8044B54F045BA2B
:109C900064720020707300202DE9F0414B790E2B87
:109CA00004D04FF000084046BDE8F0818B79012BCD
:109CB000F7D1CB79012BF4D13E4E33682BB13E4B1B
:109CC0001B68DB07EDD500BEEBE714460F461A46CE
:109CD000314605463760B480FFF7D2FD0028E0D05A
:109CE000F2883368B97813443C44A74293F814C00F
:109CF0003B4605D308E05A78042A4DD00B2A4BD0B6
:109D00001A7813449C42F6D8BCF1000F4ED02B4970
:109D10004A88002AD3D1D81B1FFA80F83272A1F8E2
:109D200002809C4293F802E00A8098BF034605D85F
:109D30000BE05A78042A2BD00B2A29D01A78134426
:109D40009C42F6D8DB1B1FFA83F80022BCF1010FFE
:109D5000A1F804804A77B2D117FA80F017FA83F39A
:109D6000984281780AD282788A4203D118E04278F8
:109D7000042AF8D0027810448342F8D828460022FA
:109D80000E49FFF7A1FE00288BD0A6F804808AE7D1
:109D90009A787245D2D0D5E79A788A42B0D0B3E7A4
:109DA000C278012AE6D18342EFD1E7E7DB1B1FFA35
:109DB00083F8EAE764720020F0ED00E070730020A1
:109DC0002DE9F047167806F01F04012C8CB004D062
:109DD000002420460CB0BDE8F087DFF8F892B2F816
:109DE00004C0D9F80070804615465FFA8CF317B1AD
:109DF000BA789A422CD0B44F7C88002CE9D03A78BB
:109E000002EB820002EB400259F802E07444A278AF
:109E10009A42DDD1C6F34116F3B2002B00F09C80CC
:109E2000012B12D15FEA1C2C0FD16B881B0A022B6D
:109E300000F02E81062B00F01781012B00F0F58039
:109E4000A24B1B68DB0700D500BE07233B77BFE7AB
:109E5000C6F34116F4B2002C47D0012C25D15FEA9D
:109E60001C2C26D0B9F80620BB18B95CDA8911443D
:109E700019448B420ED29A78023A052A06D8DA782B
:109E8000624503D107E05A78242AF4D01A781344A3
:109E90009942F8D849B1002389F80930012498E79C
:109EA0008A4B1B68D90700D500BE072389F8093003
:109EB0008EE76B881B0A012B00F09580022BEFD1F7
:109EC0006B78812B00F04781862BE9D10129E2D103
:109ED0000B46404629467E4A01F070FD0028DAD143
:109EE000FF2389F80930002473E76B780A2B4AD0E6
:109EF0000B2B3ED10129CED1EB88002BF0D1B9F844
:109F00000630FA181179A9B1F85CD189537A014465
:109F1000034413440A44934205D395E119780B4452
:109F20009A4240F2918159780529F7D199784046B3
:109F300001F006FD0026A9F806606A8865494046DA
:109F4000FFF79EFC04460028CAD02946404601F08F
:109F50001DFD89F809603CE76B780A2B27D00B2B95
:109F60007FF46EAF012900F0BD8000233B77012410
:109F70002FE7564B1B6813F001032FD107221C4615
:109F800089F8092025E7012985D1EB88012BA7D184
:109F9000B9F80620BF18A3D00CAAF97802F8301D32
:109FA000294601F00BFD04460028D2D198E701298B
:109FB000DBD1EB88012B35D1FB889BB31EEB030370
:109FC00030D00CAADB7802F8303D40460B462946DB
:109FD00001F0F4FC044628B33E77FAE600BE0723FE
:109FE00089F80930F5E66B78812B00F0D180862B5B
:109FF00000F0BE80012B7FF453AF012900F0CB802D
:10A0000002297FF448AF344B002B3FF444AF99F85A
:10A010000A100020AFF30080B0FA80F489F809003C
:10A020006409D6E6FF233B77D2E67B7F0BB187F846
:10A030001DC06C78842C61D8822C65D2012C00F074
:10A040000A81812C7FF4FCAE01298ED1EB883BB1D3
:10A05000294640463023214A01F0B0FC002884D133
:10A06000FF233B770024B4E66B78812B00F0A180BE
:10A07000862B7FF4E5AE01297FF477AF2946404671
:10A080000123134A01F09AFC00287FF46EAFE7E742
:10A090006B78812BD8D040F2B080852B00F0978070
:10A0A000862B7FF4CDAE01297FF45FAFEB88012BC7
:10A0B000D6D10B4640462946094A01F07FFC0028CC
:10A0C0007FF453AFCCE700BF70730020F0ED00E0E9
:10A0D000BD1D080064720020000000008E73002087
:10A0E000BE1D08006A8839464046FFF7EDFC00288F
:10A0F00098D02946404601F049FC36E7862CD2D05C
:10A1000065D3872C7FF49CAE01297FF42EAFEB88BA
:10A11000002BA5D0B64EE94606F1300A30687168CA
:10A12000B268F368CC46ACE80F0010365645E146FD
:10A13000F4D19DF80210002940F09F80832C00F09C
:10A140008381872C00F06481822C00F061810823D8
:10A150003B7700243DE601297FF49DAE2946404629
:10A160000123A44A01F02AFC00287FF494AEB7E64C
:10A1700001297FF490AEEB88012B7FF4B1AE294624
:10A1800040469D4A01F01AFC00287FF484AEA7E601
:10A1900001297FF480AEEB88012B7FF4A1AE294624
:10A1A00040460123954A01F009FC00287FF473AE74
:10A1B00096E601297FF4D9AE0B464046294607F1C1
:10A1C0001C0201F0FBFB00287FF4CFAE48E7012919
:10A1D0007FF4CBAEEB88022B7FF442AF0CAA302188
:10A1E00022F8301D4046294601F0E8FB04460028CD
:10A1F0003FF436AF00233B77EBE5012B7FF420AE35
:10A2000001293FF425AF02297FF4AFAE7849A1F1CF
:10A210001E00FFF781FB044660B3794B7A6BBA618D
:10A220003BB1734A79783878AFF3008000287FF427
:10A230009CAE7449002302204FF480720880C7E965
:10A2400003337B61BA83C4E56F4B1B68D8077FF586
:10A2500047AE00BE44E601293FF4FAAE02297FF47E
:10A2600084AE6349A1F11E00FFF756FB04460028A7
:10A270007FF47BAE08233B77ABE59DF80300002815
:10A280007FD1FA88002A3AD01EEB020337D01EF89D
:10A290000220B3F80D005D4E104418441344984258
:10A2A0000FD99A78102A04D826FA02F2D20700F1C0
:10A2B000D5801A7813449842F1D95A78242AF8D1D3
:10A2C000EDE70346832C5AD0872C4CD0822C7FF4A8
:10A2D0003EAF01218DF803101A781A44904237D905
:10A2E000947804F0FD06052E10D0112C0ED01478B1
:10A2F00022449042F2D95478242CF8D1EEE7424B14
:10A300001B68D9077FF523AF00BE20E7D478A142B0
:10A31000EDD1997806291DD010291BD004297FF48E
:10A3200016AFB2F80510B2F807205B7D02FB01F210
:10A3300003FB02F3DB08CDF812306A46294640469B
:10A34000302301F03BFB044600283FF489AE51E77F
:10A350000246DEE7B2F80510B2F8073003FB01F35E
:10A360001B01DB08E7E79A78062A06D0102A02D0FC
:10A37000042A7FF4ECAE997DACE79979AAE71979C4
:10A38000A8E7019B002BD8D1FA88002AB7D01EEB92
:10A390000203B4D01EF802E0B3F80D20DFF86CC061
:10A3A00072449E1873449E420ED99A78102A03D89C
:10A3B0002CFA02F2D20756D41A7813449E42F2D9EC
:10A3C0005A78242AF8D1EEE733461A7813449E428D
:10A3D00064D99A7802F0FD01052948D0112A46D0A7
:10A3E0001A7813449E42F2D95A78242AF8D1EEE71B
:10A3F0008E7300206D720020BE1D08006E7200205A
:10A400000000000070720020F0ED00E0501001002C
:10A4100001238DF8023001234FF001120293002333
:10A420000392ADF810304FF6C0428DF8223040F262
:10A430009B13ADF81A20ADF81C30404ACDF81E2011
:10A4400008238DF8233078E7FB88002BE3D01EEB40
:10A450000303E0D01B7B8DF80230DCE7DA78914211
:10A460007FF427AF2EE7DA789142A5D1ADE7DA780D
:10A470009042B5D1823C052C3FF669AE01A252F85C
:10A4800024F000BF05A50200E9A40200CBA402004D
:10A490004FA102004FA10200A1A402003346E9E748
:10A4A000D3F8151042F21073B1FBF3F301910029B8
:10A4B0003ED0DDF812208BB9931CB3F5807F28BF06
:10A4C0004FF48073CDF8163037E75A7E72BBD3F85D
:10A4D000221042F21073B1FBF3F3E7E7013A1A449A
:10A4E000B2FBF3F30233E8E75A7ECAB1053203EB5D
:10A4F0008202D2F80210D3F81A3042F21072B3FB83
:10A50000F2F3D3E75A7E72B1053203EB8202D2F83E
:10A510000220D3F81A1042F21073B2FBF3F3C5E72E
:10A52000D3F81E10E7E7D3F81E20F2E700230193CB
:10A530000023ADF81630ADF81830FEE60301010136
:10A540002DE9F84F334C238953B12278324F02EB77
:10A55000820502EB45057D592B449F788F420AD036
:10A560002E4B1B68DB0703D500BE0020BDE8F88F2B
:10A570000020BDE8F88FD4E904369E4205460BD38F
:10A5800027490023C4E90333636119B16178104698
:10A59000AFF300800120E9E701F046F90028E7D099
:10A5A000DFF88090A36999F80000D4E9042BA2EBAE
:10A5B0000B0808EB00069E4228BF1E46B04213D986
:10A5C000164B1B6813F0010301D000BE002339466F
:10A5D0002846144A01F048F90028DBD10F4B1B68CC
:10A5E000DA07C5D500BEC1E7E168A6EB000A594409
:10A5F0004844524653F06DFD0BEB0A03D0456361AE
:10A60000B3B2E4D199F8012042F0020289F80120A6
:10A61000DDE700BF7073002064720020F0ED00E001
:10A6200000000000707200202DE9F041B2F5004FEB
:10A630009DF8188030D80446C0681E460F4615465F
:10A6400018B14FF0FF3148F08FFB206918B14FF07F
:10A65000FF3148F089FBE288E068276066F30E026C
:10A66000C2F30721002368F3C711E2806381A5804C
:10A67000E171238118B11A46194647F02DFF206970
:10A6800038B100231A46194647F026FF0120BDE8DD
:10A69000F0810120BDE8F0810020BDE8F08100BF1D
:10A6A00003894289808892B29BB2934236BFC2EB43
:10A6B00040029B1A9B189BB2984228BF18467047CD
:10A6C000028943899BB2981AB0FA80F0400970471A
:10A6D00003894289808892B29BB2934236BFC2EB13
:10A6E00040029B1A9B189BB2984286BFC01A80B248
:10A6F000002070472DE9F843054600690E461746CD
:10A7000018B14FF0FF3148F02FFB2B896989A888D9
:10A710009BB289B28B4236BFC1EB40045C1AE4188D
:10A72000A4B2002C4AD0A04206D283422CBF191AF0
:10A73000191889B269810446BC4228BF3C46884248
:10A74000A4B203D8091A89B28842FBD9EA882B68D7
:10A75000401AC2F30E0887B21FFA88F2BC4202FB0D
:10A76000013125D917FB08F91FFA89F94A46304605
:10A7700053F0AFFCE21B12FB08F206EB090092B2A9
:10A78000296853F0A6FC6A89A88892B211198BB285
:10A790009A4215D940001B1A9BB228696B8120B1DF
:10A7A00000231A46194647F097FE2046BDE8F88375
:10A7B00002FB04F2304653F08CFCE4E769898BB26B
:10A7C00040008342E9DBE6E738B5054600690C4600
:10A7D00018B14FF0FF3148F0C7FA29896B89AA8870
:10A7E00089B29BB2994236BFC3EB4200C81A4018E7
:10A7F00080B200B3824209D291422CBF8B1A8B18CF
:10A800009BB29A426B8103D89B1A9BB29A42FBD9A6
:10A81000EA882968C2F30E02204602FB031153F0B6
:10A8200058FC0124286920B100231A46194647F034
:10A8300053FE204638BD0446F4E700BF2DE9F0473B
:10A840001446002A4FD00546C0680F4618B14FF095
:10A85000FF3148F089FAEA792E896989AB88D209F3
:10A86000B6B289B242D18E4236BFC1EB4301711AF2
:10A87000891989B2994252D2591A89B28C42E88810
:10A8800028BF0C46C0F30E08B342304603D8C01AA6
:10A8900080B29842FBD21B1A2A681FFA83F9A1459D
:10A8A00008FB002047D219FB08FA1FFA8AFA524621
:10A8B000394653F00EFCA4EB090212FB08F207EB39
:10A8C0000A0192B2286853F004FCA3199BB2AA882B
:10A8D000B3424FEA420201D3934201DB9B1A9BB27F
:10A8E000E8682B81F8B92046BDE8F087E8889C42EB
:10A8F000C0F30E080FD28E4223D3721A92B25800C0
:10A9000022448242C0DBCE18361BB6B2B14220D9F7
:10A91000361AB6B2B8E7E41A08FB0477B3B9E868A8
:10A9200000240028DFD000231A46194647F0D4FD42
:10A930002046BDE8F08708FB04F2394653F0C9FB16
:10A94000C3E75800421A324492B2D9E70E461C4679
:10A9500098E7B04298DCDBE710B50446C06818B150
:10A960004FF0FF3148F000FA206918B14FF0FF3185
:10A9700048F0FAF9E06800236381238118B11A4690
:10A98000194647F0A9FD206920B100231A4619464F
:10A9900047F0A2FD012010BD38B5C379B1EBD31F3C
:10A9A0001FD00446C0680D4618B14FF0FF3148F083
:10A9B000DBF9206918B14FF0FF3148F0D5F9E379A0
:10A9C000E06865F3C713E37120B100231A46194606
:10A9D00047F082FD206920B100231A46194647F04E
:10A9E0007BFD012038BD00BF704700BF704700BF2E
:10A9F0000020704700207047704700BF704700BFBD
:10AA0000704700BF704700BF024B5878003018BF36
:10AA10000120704718740020024B1878C0F38000A2
:10AA2000704700BF18740020024B1878FF3818BF19
:10AA300001207047186100202DE9F047374E337828
:10AA4000FF2B82B004D00125284602B0BDE8F08774
:10AA5000002946D03822884607460021304853F066
:10AA60005CFB304B3049002501201D7047F00EFF84
:10AA70002E4B1860002834D02D4C2346626833F8E2
:10AA80000C0B6188009547F083FCA168054648F0EF
:10AA900045FB284B1D6075B3274B23B12748AFF307
:10AAA0000080274B1860254CDFF89CA02278DFF847
:10AAB000909000252B460EE0D9F8003013EB45139B
:10AAC0000FD05B686BB1984722780135EDB2511D0C
:10AAD000A9422B4615DBAA42EED89B1A0AEB431378
:10AAE000EFE7184B1B68DA0700D500BE00252846A3
:10AAF00002B0BDE8F087134B1B68DB07F6D500BE3C
:10AB0000A2E741463846377001F050FE054600285E
:10AB1000F1D0384601F04CFE96E700BF18610020E6
:10AB20001874002018750020C8730020507400208D
:10AB3000BC6000205474002000000000C47300209A
:10AB4000C0730020F0ED00E0C01D0800B94B1B7879
:10AB5000FF2B00F0A1812DE9F04F04468BB04FF49C
:10AB60007A7200238002A10D53F088F8B24DDFF80D
:10AB7000E4B2B24E8246671C286800F02481002CA3
:10AB800000F02181BAF1000F14BF5246012207A93B
:10AB900047F058FFC0B19DF81D30013B072B00F274
:10ABA0001481DFE813F0F200D300CA00BF00B70041
:10ABB000410014000800089B0BB1099898472868C9
:10ABC00048F07EFA0028D6D10BB0BDE8F08F9DF892
:10ABD00020109B4B01F07F0703EB470303EBD113DE
:10ABE00093F826006FF3000083F8260093F8260000
:10ABF0006FF3820083F82600002F00F04581914A10
:10AC00001B7D12789342C0F03381501D9842C0F2F0
:10AC100034819B1A0BEB43139F699DF82120099BFC
:10AC20009DF81C00B847CAE7874A1378002B00F04C
:10AC300024811378013BDBB21370137803F0FF001B
:10AC4000002BBCD1DFF8F8919DF81C8099F80030FA
:10AC500043F0010389F8003099F8263060F30003CF
:10AC600089F8263099F8263060F3820389F8263077
:10AC700099F8273060F3000389F8273099F82730D6
:10AC800060F3820389F8273000F002FF9DF820303E
:10AC900003F06002602A00F00681402A00F00A8179
:10ACA00003F01F03012B00F0D581C0F01281022BAD
:10ACB00040F0F9809DF8241001F07F07082F00F282
:10ACC000F2807B00C80901934B44034400905D4827
:10ACD0001F7D03789F4280F00F82336803EB471794
:10ACE000002A00F0108257B1786900F0D1FE7B692C
:10ACF000404608AA0121984700287FF460AF9DF8DC
:10AD00001C00002101F0BEFF80219DF81C0001F015
:10AD1000B9FF54E74A4B1B78D8077FF550AFFFF7D0
:10AD200071FE4CE7464B1A78D7077FF548AF187885
:10AD3000C0F3C000FFF764FE41E7414BDB78D90761
:10AD40007FF53DAF0898FFF751FE38E73D4F9DF87E
:10AD50001C903A780023984610E0336813EB4813B0
:10AD600000F08080DB68484698473A7808F101088F
:10AD70005FFA88F8511D8845434645DC9045A3EBB2
:10AD80000203EAD30BEB4313ECE72E4F9DF81C9024
:10AD90003A78002398460FE0336813EB48135BD0F2
:10ADA000DB68484698473A7808F101085FFA88F866
:10ADB000511D884543460FDC9045A3EB0203EBD3BE
:10ADC0000BEB4313ECE72246E1E6204B1B68DA0766
:10ADD0007FF5F5AE00BEF2E638220021184853F0A8
:10ADE0009CF91B4A4FF0FF33C2E90533C2E9003337
:10ADF000C2E90233D3611384136100F03FFE104BAC
:10AE00009DF820209A70DAE6382200210C4853F091
:10AE100084F90F4A4FF0FF33C2E90533C2E900332A
:10AE2000C2E90233D3611384136100F027FEFFF7F8
:10AE3000E5FDC4E61861002054740020C0730020B2
:10AE400018740020C473002018750020F0ED00E095
:10AE50001C740020C01D0800A44B1B68D907CCD56A
:10AE600000BECAE7A14B1B68DA07DED500BEDCE7EF
:10AE7000326812EB43137FF4CFAE9C4B1B68DB07A9
:10AE80007FF5A2AE00BE9FE6099B9DF821209DF8AC
:10AE90001C0000F013FE92E67047FCF7F3FC02463C
:10AEA000002840F0E981914B1B68DA077FF527AF56
:10AEB00000BE24E78E4800283FF421AF00F0E8FDF3
:10AEC000404608AA0121FCF725FF00287FF477AE51
:10AED00015E7202A00F0F180002AE4D19DF8213006
:10AEE000092BE0D801A252F823F000BF13B00200F2
:10AEF000F3AF0200A7AE020035B00200A7AE020019
:10AF0000D5AF020081AF0200A7AE02006BAF020016
:10AF100015AF02009DF8223001931A4699F80130CE
:10AF20009A4200F0548199F80130002B40F054818E
:10AF3000019B89F80130002B00F04781581EC0B2F8
:10AF4000FCF7A0FC18B14378022B00F0C181674BDD
:10AF50001B68DB0700D500BE644B1B68D80700D513
:10AF600000BE002389F80130C9E60AAA99F8013029
:10AF700002F80E3D4046012308A900F01FFD1EE621
:10AF8000BDF82200030A5A1EC0B20E2A3FF6B7AE21
:10AF900001A151F822F000BF8BB2020067B202009B
:10AFA00057B20200FFAC0200FFAC020039B202004F
:10AFB00067B20200FFAC0200FFAC0200FFAC02006F
:10AFC000FFAC0200FFAC0200FFAC0200FFAC0200CD
:10AFD000BBB2020008A800F061FD40469DF82210B7
:10AFE00001F0ECFB99F8003043F0020389F80030DF
:10AFF000E5E5BDF82230012B7FF481AE99F80030F1
:10B0000040466FF3C30308A989F8003000F0BEFC86
:10B01000D5E599F80030990801F00201C3F3401317
:10B020000AAA0B4322F80E3D4046022308A900F06D
:10B03000C5FCC4E5BDF82230012B7FF460AE99F861
:10B040000030404643F0080308A989F8003000F0BA
:10B050009DFCB4E59DF824300F2B3FF650AE4B44D9
:10B06000244A1B791778BB4238D2376817EB43174D
:10B070003FF445AE786900F00BFD7B6908AA012119
:10B080004046984700287FF49AAD9DF8203013F091
:10B0900060077FF434AE9DF821300A3B012B3FF668
:10B0A0002EAE00F0F5FC9DF821300A2B00F0FC805C
:10B0B00008A9404600F06AFC81E59DF824300F2B7A
:10B0C0003FF61DAE4B440B4A1B791778BB4260D24A
:10B0D000376817EB43173FF412AE05E67A1D9A4224
:10B0E000FFF60DAEDB1B0BEB4317C3E7F0ED00E003
:10B0F000157D0200C4730020581DB84239DA002AB9
:10B100007FF4FDAD17469DF82130012B03D036D3D7
:10B11000032B7FF4C8AEBDF822200292AAB9B84A28
:10B12000012B10783DD001F0ADFD019B009A4B44FE
:10B13000134493F8262042F0020283F8262093F865
:10B14000262042F0010283F82620002F3FF437AD7D
:10B15000786900F09DFC7B69012108AA4046984768
:10B16000002000F095FC99F82730D9073FF527AD6E
:10B170009EE7FB1A0BEB4317002AC4D0B4E5019BF2
:10B18000009A4B44134420330AAA9B79C3F340032B
:10B1900048E77A1D9A42FFF6B2ADDB1B0BEB431773
:10B1A000A2E501F097FD019B009A02994B441344DC
:10B1B00093F8262061F3410283F8262093F8262095
:10B1C00061F3000283F82620BFE7FFF717FC404633
:10B1D00008A900F0DBFBF2E40021404601F000FB8F
:10B1E000404601F09FFB874F99F8023002930023FD
:10B1F00000943A781C460CE00BEB4313DB684046A6
:10B2000098473A780134E4B2501D8442234600F353
:10B21000CE809442A3EB0203EED2336813EB4413C7
:10B22000ECD1794B009C1B68DB0700D500BE9DF874
:10B23000083089F802307BE6FFF7DAFB0246002887
:10B240003FF45DAD4046137808A900F0B7FB002835
:10B250007FF4B5AC53E5BDF82410FCF719FB0246AA
:10B260000028EFD14BE5022B3FF417AEFFF7C2FBEE
:10B27000024600283FF443AD4046538808A900F039
:10B280009DFB00287FF49BAC39E5FCF7F7FA0246FA
:10B2900000283FF408AE4046122308A900F08EFBB8
:10B2A00000287FF48CAC2AE50AAA08A902F80E7DD2
:10B2B0004046012300F082FB81E4544B002B3FF415
:10B2C0001EADFCF723FD024600283FF418ADD3E77E
:10B2D000C27999F80030511161F30413921162F3AD
:10B2E000451389F800304388CDF81080CDE900A4DB
:10B2F000C318039300F10907039BBB4237D97B783E
:10B300000B2B03BF3B7897F803A0FF184FF0010AFF
:10B310007B78042B43D1039B3A4ACDF814A0DB1B66
:10B3200000219BB20291127888469A4617E0346851
:10B3300014EB481433D05246394604982369984791
:10B34000082808F1010201D9824543D22D4B5FFA4A
:10B3500082F81A78CDF80880511D88451CDC029BC4
:10B360009045A3EB0202E2D30BEB4214E3E7DDF8D6
:10B370001080DDE900A4FFF73FFB28E702464346C3
:10B3800004463946224802F0B1FA1E4B029A1B7855
:10B39000053393422744AFDADDE900A4D7E51A4B21
:10B3A0001B68DF07DDE900A47FF5D6ADD3E53822C1
:10B3B00000211848009C52F0B0FE174A4FF0FF33AE
:10B3C000C2E90533D3611384C2E90033C2E9023311
:10B3D00013612CE7DDF814A0BAF1010F1ED0002193
:10B3E000CBB2534501F10101C8D2BA78134459FADE
:10B3F00083F31A79FF2AD2D183F80480F0E700BFE3
:10B4000018610020C4730020F0ED00E00D7D020003
:10B410002C740020187400201C74002023690A4A30
:10B420000A498B4208BF4FF0020A9342D7D17B7979
:10B43000012BD4D1BB79012BD1D1FB79002B08BFD3
:10B440004FF0020ACBE700BF35890200F580020009
:10B450002DE9F0434378023B85B005460E46042BA8
:10B460000CD8DFE803F0495D037E3F00844B1A7877
:10B47000D70715D51A7842F004021A70814B186864
:10B480008EB933464FF0FF32294647F025F8003099
:10B4900018BF0120F0B97C4B1B68DB0700D500BE4C
:10B4A00005B0BDE8F08304AA002342F80C3D29460C
:10B4B00047F022FA019B43B1744B4FF080525A601F
:10B4C00040BFBFF34F8FBFF36F8F003018BF012015
:10B4D0000028E0D0324669782878FFF785FA05B071
:10B4E000BDE8F0836A4A13780133DBB21370654B11
:10B4F0001868002ED7D1C4E7614B1A786FF30002A9
:10B500001A701A7800216FF341021A7059701A7874
:10B5100061F382021A705B4B1868002EC3D1B0E74A
:10B520005C4FDFF874913978DFF87081002423468E
:10B530000AE0D8F8003013EB44130AD10134E4B226
:10B540004A1DA242234615DB8C42F2D35B1A09EB5B
:10B550004313DB69002BF1D0696828789847397864
:10B56000ECE7474B1A78D4079AD51A786FF3820222
:10B570001A7083E7424C237858072FD52378414926
:10B580006FF3820323702B788DF80430052200239B
:10B59000CDF80A30CDF80630ADF80E3008688DF8D9
:10B5A0000520002E59D004AA01A942F8103D47F009
:10B5B000A3F9009B43B1354B4FF080525A6040BF16
:10B5C000BFF34F8FBFF36F8F003018BF01200028EB
:10B5D0004DD12D4B1B68D90700D500BEE378DA07A3
:10B5E0007FF55EAF274A2B78696810688DF80430C4
:10B5F00003220023CDF80A30CDF80630ADF80E3026
:10B6000002918DF80520F6B104AA01A942F8103D77
:10B6100047F072F9009B43B11C4B4FF080525A60C7
:10B6200040BFBFF34F8FBFF36F8F003018BF0120B3
:10B6300000283FF430AF32469DF805109DF8040015
:10B64000FFF7D2F92CE733464FF0FF3201A946F05D
:10B6500043FF003018BF0120EAE733464FF0FF32C6
:10B6600001A946F039FF003018BF0120AFE732468C
:10B670009DF805109DF80400FFF7B6F9AEE700BF8E
:10B680001874002054740020F0ED00E000ED00E09C
:10B6900018750020C4730020C01D0800C07300206E
:10B6A0002DE9F84F0A9F002A4CD090464A78052A87
:10B6B0000C460ED1CE7806F00306B34209D18A7843
:10B6C00002F07F02082A0DD9204B1B68DA0700D54B
:10B6D00000BE1E4B1B68DB0702D40020BDE8F88FBC
:10B6E00000BEFAE7DFF868B0DFF868A09BF80090CA
:10B6F00000250EE06278052AEBD1E27802F0030221
:10B70000B242E6D1A27802F07F02082ADCD89BF888
:10B7100000909AF802100022204602F095F80028C6
:10B72000D2D04846214601F06FF80028D1D0A27847
:10B73000D30916BF0B9B3A701A7022780135454524
:10B740001444D7D10120BDE8F88F00BFF0ED00E030
:10B75000186100201874002030B51E4D85B00824F3
:10B7600000230290019303918DF805402868144648
:10B7700082B9134601A94FF0FF3246F0ADFE00300A
:10B7800018BF0120E0B9144B1B68DB0700D500BED1
:10B7900005B030BD04AA01A942F8103D47F0ACF84D
:10B7A000009B43B10D4B4FF080525A6040BFBFF336
:10B7B0004F8FBFF36F8F003018BF01200028E2D0F9
:10B7C00022469DF805109DF80400FFF70DF905B01D
:10B7D00030BD00BF54740020F0ED00E000ED00E04B
:10B7E00038B58B7803F07F03082B06D90B4B1B6809
:10B7F000DB0700D500BE002038BD094A094B0C46C6
:10B80000204691781D78002202F01EF80028EDD025
:10B8100021462846BDE8384000F0F6BFF0ED00E0D4
:10B820001874002018610020CB09263301F07F0135
:10B830000348044A03EB41010844116801F0BABF10
:10B840001874002050740020CB09263301F07F01CA
:10B850000348044A03EB41010844116801F0D6BFD4
:10B86000187400205074002038B5154C01F07F0585
:10B8700004EB450404EBD1142034A079C00706D5AD
:10B88000104B1B68DA0700D500BE002038BDA57933
:10B890000D4845F001050078A57101F0F1F8002888
:10B8A000F4D1A379074A60F30003A371A37960F38D
:10B8B0008203A3711368DB07E7D500BE38BD00BF64
:10B8C00018740020F0ED00E018610020054B01F035
:10B8D0007F0203EB420303EBD11191F8260000F045
:10B8E000010070471874002010B50C4B18780C46F6
:10B8F00001F0C8F90A4904F07F0301EB430101EBB1
:10B90000D41191F8263043F0020381F8263091F8E3
:10B91000263043F0010381F8263010BD1861002065
:10B9200018740020054B01F07F0203EB420303EB88
:10B93000D11191F82600C0F3400070471874002020
:10B9400010B50F4B18780C4601F036F80D4904F08D
:10B950007F0301EB430101EBD41191F826306FF323
:10B96000410381F8263091F826306FF3000381F807
:10B97000263091F826306FF3820381F8263010BD0F
:10B980001861002018740020704700BF0A4630B4C8
:10B99000094C496805461068234603C30023C4E9DF
:10B9A000023392F900209A422846ACBF8021194602
:10B9B0001A4630BCFFF758BF5C750020F0B50E4644
:10B9C0002B4C496807463068A260254603C5002114
:10B9D000E181F588AB4228BF2B4683B0A381ADB18E
:10B9E0003BB3002A3DD094F90000402B28BF4023F0
:10B9F00000282CDB1F4A3846FFF736FF98B91E4B4C
:10BA00001B68DB0712D500BE03B0F0BD96F900300D
:10BA1000002BACBF8021002138462B462A46FFF779
:10BA200023FF0028EBD0012003B0F0BD002003B0BD
:10BA3000F0BD94F90020002AACBF194680211A46B7
:10BA40003846FFF711FF0028D9D00120ECE7114656
:10BA5000084801931A4652F03CFB064A019B80219C
:10BA6000EEE7054B1B68D907E0D500BE1046CBE7D3
:10BA70005C7500201C750020F0ED00E0034B0022F7
:10BA8000C3E90022C3E902221A6170475C750020F5
:10BA9000014B1861704700BF5C7500200346064AE1
:10BAA0005968006810B41346002403C3C2E9024475
:10BAB0005DF8044B704700BF5C75002070B5404CCA
:10BAC0002278C909B1EBD21F82B0064615D03BB12E
:10BAD0003C4B1B68DA0700D500BE002002B070BDE9
:10BAE0002146FFF751FF2369002B40D02246304604
:10BAF00003219847012002B070BD94F90020A0688E
:10BB0000002A08DB0028E8D01A462F49019352F09A
:10BB1000E0FAA068019BE589E2881D44ADB21844B3
:10BB2000AA42A060E58101D03F2B23D8236923B12D
:10BB3000234A02213046984788B194F90020002317
:10BB40009A42ACBF8021194630461A46FFF78CFE58
:10BB500068B91C4B1B68DB07BFD500BEBEE70146BA
:10BB6000304601F08FF83046802101F08BF801203B
:10BB700002B070BDA28994F90010531B9BB2402BF8
:10BB800028BF402300290ADB95424FF0000112D064
:10BB90000D4A3046FFF768FE0028DAD0E7E7954205
:10BBA0000BD001461A460848019352F092FA8021C0
:10BBB000054A019BEDE70A46EBE780210022E8E712
:10BBC0005C750020F0ED00E01C75002000B17047AE
:10BBD00048F0D0BC00B1704748F0D6BC0138C3B2C1
:10BBE000042B07D856230D4A03FB00F013181B79CA
:10BBF000DB0706D40A4B1B68DB0700D500BE00201C
:10BC00007047CB09363301F07F0103EB4101054B4F
:10BC100008441044196801F0CDBD00BF70750020C4
:10BC2000F0ED00E0207700200138C3B2042B07D8E4
:10BC300056230A4A03FB00F013181B79DB0701D4D3
:10BC400000207047CB09363301F07F0103EB41013F
:10BC5000034B08441044196801F0D8BD70750020EA
:10BC600020770020F0B5441EE5B2042D83B017D82C
:10BC7000562505FB04F5174E01F07F0405EB44043F
:10BC8000344404EBD1143034A779FF070BD5124BA1
:10BC9000186810F0010001D000BE002003B0F0BD14
:10BCA000002003B0F0BD1F4613460A460146705DF2
:10BCB000A579009745F00105A57100F0BDFB0028AE
:10BCC000ECD1A37960F30003A371A37960F382033D
:10BCD000A371E3E770750020F0ED00E02DE9F04777
:10BCE000764DAF798F4284B091461E4604465BD0B4
:10BCF000E2234FF0000AA9718DF809108DF8083081
:10BD0000ADF80CA0002E00F0B380012103AF0DF1BF
:10BD10000808FBF72BFE41463A4602232046FBF774
:10BD200053FE51462046FBF721FE9DF80C30EB7088
:10BD30002223D9F800908DF80730002E3ED02046FF
:10BD40000121FBF713FE3A460DF1070101232046BE
:10BD5000FBF73AFE9DF80C30EB70494608230022B1
:10BD60002046FBF731FE20460021FBF7FFFD0026B1
:10BD7000102241F2F20320460121EA71ADF80830A9
:10BD8000ADF80C60FBF7F2FD3A464146022320462F
:10BD9000FBF71AFE31462046FBF7E8FD9DF80C3014
:10BDA000EB7004B0BDE8F087222303AF0DF1080863
:10BDB000D9F800908DF80730002EC0D14FF0FF3138
:10BDC000E86D46F0D1FF31462046FBF709FE2046DC
:10BDD0000121FBF7CBFD3A460DF107010123204677
:10BDE000FBF7F2FD9DF80C30EB7032460823494614
:10BDF0002046FBF7E9FD31462046FBF7B7FD20461C
:10BE00000121FBF7EDFD334632463146E86D46F041
:10BE100063FB102241F2F2034FF0FF31E86DEA714B
:10BE2000ADF80830ADF80C6046F09EFF3146204674
:10BE3000FBF7D6FD20460121FBF798FD3A46022389
:10BE400041462046FBF7C0FD31462046FBF78EFDFC
:10BE500020460121FBF7C4FD334632463146E86DEA
:10BE600046F03AFB9DF80C30EB7004B0BDE8F0876B
:10BE70004FF0FF31E86D46F077FF31462046FBF783
:10BE8000AFFD03AF204601210DF10808FBF76EFD61
:10BE90003A46022341462046FBF796FD31462046AE
:10BEA000FBF764FD20460121FBF79AFD334632463D
:10BEB0003146E86D46F010FB37E700BF24770020DD
:10BEC0002DE9F04F4B781D070E4685B09046097856
:10BED000044662D1DA0600F14881B26812B1B28834
:10BEE000002A5AD1E24D03F02006AB7966F07F06B6
:10BEF0008B42F6B200F06481E2230027A9718DF82D
:10BF000009108DF80830ADF80C70B8F1000F00F092
:10BF10006C82012120460DF10C090DF1080AFBF796
:10BF200025FD51464A4602232046FBF74DFD394682
:10BF30002046FBF71BFD9DF80C30EB70F223EE71F1
:10BF40008DF8096000268DF80830ADF80C60B8F166
:10BF5000000F40F0D980E86D4FF0FF3146F004FF4C
:10BF600041462046FBF73CFD20460121FBF7FEFC45
:10BF70004A46022351462046FBF726FD414620460D
:10BF8000FBF7F4FC20460121FBF72AFD434642461D
:10BF90004146E86D46F0A0FA45E0B54D13F02007A4
:10BFA000AA7946D1914240F0BE800DF10C090DF105
:10BFB000080AB37813F0100F0CBF10222022EA23D6
:10BFC00000278DF809208DF80830ADF80C70B8F115
:10BFD000000F00F0FA8001212046FBF7C7FC022386
:10BFE0004A4651462046FBF7EFFC39462046FBF710
:10BFF000BDFC9DF80C30EB707378EB71F2220121DF
:10C0000020468DF809308DF80820ADF80C70FBF74C
:10C01000ADFC51464A4602232046FBF7D5FC394683
:10C020002046FBF7A3FC9DF80C30EB7005B0BDE893
:10C03000F08F914240F0A1800DF10C090DF1080A3A
:10C04000B37813F0100F0CBF40228022EA230027A0
:10C050008DF809208DF80830ADF80C70B8F1000F9C
:10C0600000F0E48001212046FBF780FC51460223CA
:10C070004A462046FBF7A8FC39462046FBF776FCEB
:10C080009DF80C30EB7032882B899A422AD0B78801
:10C09000F2887388BF1ABFB25B099F4228BF1F4650
:10C0A00017F0FF0740F008813A23AF708DF8097050
:10C0B00000278DF80830ADF80C70B8F1000F00F0D3
:10C0C000D98001212046FBF751FC514602234A4604
:10C0D0002046FBF779FC39462046FBF747FC9DF8E4
:10C0E0000C30EB7033782B7273786B727378EB7162
:10C0F000F22200268DF809308DF80820ADF80C608A
:10C10000B8F1000F3FF427AF20460121FBF72EFCCA
:10C1100051464A4602232046FBF756FC314620464C
:10C12000FBF724FC7FE7E223A9718DF80910ADF835
:10C130000C708DF80830B8F1000F00F0DE8001219E
:10C1400020460DF10C090DF1080AFBF70FFC5146D2
:10C150004A4602232046FBF737FC39462046FBF7C8
:10C1600005FC9DF80C30EB7023E7434606F108020E
:10C17000FFF7B4FD05B0BDE8F08FE2230027A971F9
:10C180008DF809108DF80830ADF80C70B8F1000F7B
:10C1900000F0D980012120460DF10C090DF1080AAB
:10C1A000FBF7E4FB51464A4602232046FBF70CFC12
:10C1B00039462046FBF7DAFB9DF80C30EB703FE781
:10C1C0000DF10C090DF1080AB8E64FF0FF31E86DEA
:10C1D00046F0CAFD41462046FBF702FC01212046FD
:10C1E000FBF7C4FB02234A4651462046FBF7ECFB13
:10C1F00041462046FBF7BAFB01212046FBF7F0FB46
:10C20000434642464146E86D46F066F99DF80C30DB
:10C21000EB707378E86DEB71F2224FF0FF318DF81F
:10C220000930ADF80C808DF8082097E64FF0FF310B
:10C23000E86D46F099FD41462046FBF7D1FB2046CC
:10C240000121FBF793FB4A46022351462046FBF7A8
:10C25000BBFB41462046FBF789FB20460121FBF74B
:10C26000BFFB434642464146E86D46F035F907E7D5
:10C27000247700204FF0FF31E86D46F075FD414610
:10C280002046FBF7ADFB20460121FBF76FFB4A463A
:10C29000022351462046FBF797FB41462046FBF719
:10C2A00065FB20460121FBF79BFB43464246414686
:10C2B000E86D46F011F912E712238DF80730D6F831
:10C2C00008B0B8F1000F64D020460121FBF74EFB07
:10C2D0004A460DF1070101232046FBF775FB9DF847
:10C2E0000C30EB7059463B4600222046FBF76CFBB6
:10C2F00000212046FBF73AFBD6E64FF0FF31E86D10
:10C3000046F032FD41462046FBF76AFB0DF10C0971
:10C31000204601210DF1080AFBF728FB4A460223BB
:10C3200051462046FBF750FB41462046FBF71EFBDB
:10C3300020460121FBF754FB434642464146E86D47
:10C3400046F0CAF80DE74FF0FF31E86D46F00CFDFE
:10C3500041462046FBF744FB0DF10C092046012124
:10C360000DF1080AFBF702FB4A460223514620461C
:10C37000FBF72AFB41462046FBF7F8FA204601214D
:10C38000FBF72EFB434642464146E86D46F0A4F8D3
:10C3900012E74FF0FF31E86D46F0E6FC41462046DB
:10C3A000FBF71EFB20460121FBF7E0FA4A460DF1A0
:10C3B000070101232046FBF707FB9DF80C30EB70CB
:10C3C00042463B4659462046FBF7FEFA4146204688
:10C3D000FBF7CCFA20460121FBF702FB434642461D
:10C3E0004146E86D46F078F85EE64FF0FF31E86DC3
:10C3F00046F0BAFC41462046FBF7F2FA0DF10C0973
:10C40000204601210DF1080AFBF7B0FA4A46022343
:10C4100051462046FBF7D8FA41462046FBF7A6FADC
:10C4200020460121FBF7DCFA434642464146E86DCF
:10C4300046F052F87FE500BF2DE9F04102F07F0C95
:10C44000BDF818E0D20981BBBCF1000F5ED13E4EB1
:10C45000A6F160077178B47882F0010262F34511A9
:10C460000A466FF3041244F010017270B170B27892
:10C47000B360032363F3030200258046A6F804E0BB
:10C48000B270F5802846FFF7A1FBBC7AC4BB01253A
:10C490002046BD72FFF79EFB2246404631462C46A1
:10C4A000FFF70EFD2046BDE8F08182F00108BCF1E7
:10C4B000000F2ED0254F01223C4604E00132142A01
:10C4C00004F10C0418D094F86C508D42F6D102EBB4
:10C4D000420507EB850595F8615005F00F066645A6
:10C4E000ECD1C5F34015454504F16C06BFD00132CF
:10C4F000142A04F10C04E6D100242046BDE8F081A2
:10C500002846FFF767FB2046BDE8F08182F001086E
:10C51000D0E70E4F01243D4602E00134142CEBD04D
:10C5200095F86C608E4205F10C05F6D104EB4406DB
:10C53000B60007EB060C9CF861C01CF00F0FECD1A5
:10C5400060363E4486E700BF8477002024770020D1
:10C5500042DF704743DF704744DF704712DF7047A8
:10C56000F0B5334CBFF35B8F014604F590730125A2
:10C57000D3E84F2FC3E8405F0028F9D1BFF35B8FAA
:10C5800012F0FF0F48D1082929D04E01A21954F802
:10C5900006C028489388284F01F5947601EB810E58
:10C5A00050F82660D2889A1A93B2B6B200EB8E0287
:10C5B00009B2B34228BF3346C2F800C707EB810077
:10C5C000C2F8043747F82150BFF36F8FBFF34F8F86
:10C5D0001A4B984218D0043B984215D0F0BD154B29
:10C5E000D3F8C024D1030FD494F80B1161B11449CE
:10C5F000D4F80001C3F8A007C3F8A4270D60BFF367
:10C600006F8FBFF34F8FF0BD0023BFF35B8F84F8B4
:10C610002031BFF35B8FF0BD0A4B0B485A68C2F361
:10C620000802003218BF0122BDE8F040FFF794B8BD
:10C630007478002000700240287002405070024060
:10C640004870024000ED00E0C1C60200174BBFF386
:10C650005B8F01460122D3E84F0FC3E84C2FBCF19A
:10C66000000FF8D1BFF35B8F10F0FF0F14D10A60F9
:10C67000BFF36F8FBFF34F8F0D4B994203D0043B35
:10C68000994200D070470B4BBFF35B8F002283F8B9
:10C690002021BFF35B8F7047074B08485A68C2F3ED
:10C6A0000802003218BF0122FFF756B89479002023
:10C6B000507002407478002000ED00E04DC602008A
:10C6C000F0B5334CBFF35B8FC1B204F59073012614
:10C6D000D3E84F2FC3E8406F0028F9D1BFF35B8F39
:10C6E00012F0FF0F47D1082928D04D01621954F8E4
:10C6F00005E028489388DFF8B0C001F5947550F83C
:10C700002570D2888D009A1A93B2BFB26A1800EBD6
:10C710008202BB4228BF3B46C2F800E76544C2F82C
:10C7200004374CF82160BFF36F8FBFF34F8F1A4B64
:10C730009D4218D0043B9D4215D0F0BD154BD3F857
:10C74000C024D1030FD494F80B1161B11349D4F86C
:10C750000001C3F8A007C3F8A4270E60BFF36F8FD2
:10C76000BFF34F8FF0BD0023BFF35B8F84F8203100
:10C77000BFF35B8FF0BD0A4B0A485A68C2F3080248
:10C78000003218BF0122BDE8F040FEF7E5BF00BF50
:10C7900074780020007002405070024048700240DF
:10C7A00000ED00E0C1C60200287002400120704781
:10C7B000014B80225A60704700E100E0074BD3F83C
:10C7C0000014D3F8002400200A434FF48001C3F87A
:10C7D0000024C3F85801C3F80413704700700240E6
:10C7E000074B4FF4001229B9C3F80823054B83F80F
:10C7F00021117047C3F80423024B83F821117047BD
:10C80000007002407478002070B48A788C88414EA1
:10C81000C97802F07F03D50905EB430006EB001051
:10C8200001F00301C4F30A04012904812BD0012182
:10C8300001FA03F4BDB1384802339940C0F804133B
:10C84000D0F810352343C0F81035334B42F48071D3
:10C85000C3F81825C3F80C15BFF36F8FBFF34F8FC4
:10C86000012070BC70472C4803F10C06B140C0F8A1
:10C870000413D0F8141503F594730C43C0F8144551
:10C8800040F82350E1E7082B08D0244B186810F03B
:10C890000100E6D000BE002070BC7047EDB9B6F8CC
:10C8A00018311BB11C4B8022C3F81C251A4A0023E7
:10C8B000C2F85031D2F8003313F4001308BFC2F8A5
:10C8C0005431154B4FF44012C3F80423D3F8142508
:10C8D00042F48072C3F81425BEE7B6F808210E4B67
:10C8E0000021C3F82C1112B18022C3F81C250A4A7A
:10C8F000D2F8003313F4001308BFC2F85431064BCA
:10C90000074AC3F80423D3F8102542F48072C3F811
:10C910001025A1E77478002000700240F0ED00E0DF
:10C92000000820001F4B80222DE9F041C3F884202D
:10C93000BFF34F8FBFF36F8F01241B4D1B4FA046DA
:10C940000026A30004F10C02A11C03F1804303F5AF
:10C950001C3308FA01F108FA02F20A43C7F8082367
:10C9600028465E60013420229E62002151F0D5FBF2
:10C97000082C05F12005E4D10D4BC7F8083320221F
:10C98000C7F81C6500217E620A48BE6451F0C5FBF1
:10C99000C7F81485C7F81085024B80225A60BDE89D
:10C9A000F08100BF00E100E09478002000700240B8
:10C9B000000830007479002001F07F02082A70B46A
:10C9C0004FEAD11128D0012303FA02F0C043B1B1DC
:10C9D000294C951CAB40C4F80833D4F81055274BAC
:10C9E0002840C4F8100501EB420103EB01110023BC
:10C9F000CB72BFF36F8FBFF34F8F70BC70471E4C6D
:10CA000002F10C05AB40C4F80833D4F814551B4BA5
:10CA10002840C4F81405E6E7184B03EB0110002486
:10CA2000A0F808411448D1B14FF40064C0F808439D
:10CA3000D0F8104524F48074C0F81045B3F81841BC
:10CA4000B3F808510C48EC424FF0000608BF4FF411
:10CA50000014C0F81C6508BFC0F80843C3E74FF4D2
:10CA60008014C0F80843D0F8144524F48074C0F84A
:10CA70001445C0F85011E1E70070024074780020BE
:10CA800001F07F004FEAD11CF0B50CEB4005744E6D
:10CA90002D01771985B0FC7A4CB1724B1C6814F0EB
:10CAA000010401D000BE0024204605B0F0BD04F012
:10CAB000FF0E7251BB80A7F806E0002843D1002B7F
:10CAC00057D0BCF1000F00F08E8006EB401100EB58
:10CAD0008003CD8A8A8A0C8B0969521B9B0092B213
